{
  "address": "0x096b78e5227064Fe831046A2E9F89993b501F0b3",
  "abi": [
    {
      "inputs": [
        {
          "internalType": "uint256",
          "name": "_initVirtualEthReserve",
          "type": "uint256"
        },
        {
          "internalType": "uint256",
          "name": "_tokenCreateFee",
          "type": "uint256"
        },
        {
          "internalType": "uint256",
          "name": "_deployLiquidityFee",
          "type": "uint256"
        },
        {
          "internalType": "uint256",
          "name": "_transactionFeePercent",
          "type": "uint256"
        },
        {
          "internalType": "address[4]",
          "name": "_dexRouterAddresses",
          "type": "address[4]"
        },
        {
          "internalType": "uint256",
          "name": "_maxGasPrice",
          "type": "uint256"
        }
      ],
      "stateMutability": "nonpayable",
      "type": "constructor"
    },
    {
      "inputs": [],
      "name": "DeadlineExceeded",
      "type": "error"
    },
    {
      "inputs": [
        {
          "internalType": "uint256",
          "name": "maxGasPrice",
          "type": "uint256"
        }
      ],
      "name": "ExceededMaxGasPrice",
      "type": "error"
    },
    {
      "inputs": [],
      "name": "InsufficientOutput",
      "type": "error"
    },
    {
      "inputs": [],
      "name": "InsufficientPayment",
      "type": "error"
    },
    {
      "inputs": [],
      "name": "InvalidAmountIn",
      "type": "error"
    },
    {
      "inputs": [],
      "name": "InvalidToken",
      "type": "error"
    },
    {
      "inputs": [],
      "name": "NotEnoughBalance",
      "type": "error"
    },
    {
      "inputs": [],
      "name": "NotEnoughBalanceForFees",
      "type": "error"
    },
    {
      "inputs": [
        {
          "internalType": "address",
          "name": "owner",
          "type": "address"
        }
      ],
      "name": "OwnableInvalidOwner",
      "type": "error"
    },
    {
      "inputs": [
        {
          "internalType": "address",
          "name": "account",
          "type": "address"
        }
      ],
      "name": "OwnableUnauthorizedAccount",
      "type": "error"
    },
    {
      "inputs": [],
      "name": "Paused",
      "type": "error"
    },
    {
      "inputs": [],
      "name": "ReentrancyGuardReentrantCall",
      "type": "error"
    },
    {
      "inputs": [],
      "name": "TokenApprovalRequired",
      "type": "error"
    },
    {
      "anonymous": false,
      "inputs": [
        {
          "indexed": true,
          "internalType": "address",
          "name": "tokenAddress",
          "type": "address"
        },
        {
          "indexed": true,
          "internalType": "address",
          "name": "pair",
          "type": "address"
        },
        {
          "indexed": false,
          "internalType": "uint256",
          "name": "ethAmount",
          "type": "uint256"
        },
        {
          "indexed": false,
          "internalType": "uint256",
          "name": "tokenAmount",
          "type": "uint256"
        },
        {
          "indexed": false,
          "internalType": "uint256",
          "name": "fee",
          "type": "uint256"
        },
        {
          "indexed": false,
          "internalType": "uint256",
          "name": "timestamp",
          "type": "uint256"
        }
      ],
      "name": "LiquidityMigrated",
      "type": "event"
    },
    {
      "anonymous": false,
      "inputs": [
        {
          "indexed": true,
          "internalType": "address",
          "name": "previousOwner",
          "type": "address"
        },
        {
          "indexed": true,
          "internalType": "address",
          "name": "newOwner",
          "type": "address"
        }
      ],
      "name": "OwnershipTransferred",
      "type": "event"
    },
    {
      "anonymous": false,
      "inputs": [
        {
          "indexed": true,
          "internalType": "address",
          "name": "token",
          "type": "address"
        },
        {
          "indexed": true,
          "internalType": "address",
          "name": "trader",
          "type": "address"
        },
        {
          "indexed": false,
          "internalType": "uint256",
          "name": "price",
          "type": "uint256"
        },
        {
          "indexed": false,
          "internalType": "uint256",
          "name": "mcapEth",
          "type": "uint256"
        },
        {
          "indexed": false,
          "internalType": "uint256",
          "name": "timestamp",
          "type": "uint256"
        }
      ],
      "name": "PriceUpdated",
      "type": "event"
    },
    {
      "anonymous": false,
      "inputs": [
        {
          "indexed": true,
          "internalType": "address",
          "name": "creator",
          "type": "address"
        },
        {
          "indexed": true,
          "internalType": "address",
          "name": "tokenAddress",
          "type": "address"
        },
        {
          "indexed": false,
          "internalType": "string",
          "name": "name",
          "type": "string"
        },
        {
          "indexed": false,
          "internalType": "string",
          "name": "symbol",
          "type": "string"
        },
        {
          "indexed": false,
          "internalType": "string",
          "name": "description",
          "type": "string"
        },
        {
          "indexed": false,
          "internalType": "string",
          "name": "logo",
          "type": "string"
        },
        {
          "indexed": false,
          "internalType": "string",
          "name": "banner",
          "type": "string"
        },
        {
          "indexed": false,
          "internalType": "string",
          "name": "twitter",
          "type": "string"
        },
        {
          "indexed": false,
          "internalType": "string",
          "name": "telegram",
          "type": "string"
        },
        {
          "indexed": false,
          "internalType": "string",
          "name": "website",
          "type": "string"
        },
        {
          "indexed": false,
          "internalType": "address",
          "name": "routerAddress",
          "type": "address"
        },
        {
          "indexed": false,
          "internalType": "uint256",
          "name": "timestamp",
          "type": "uint256"
        }
      ],
      "name": "TokenCreated",
      "type": "event"
    },
    {
      "anonymous": false,
      "inputs": [
        {
          "indexed": true,
          "internalType": "address",
          "name": "trader",
          "type": "address"
        },
        {
          "indexed": true,
          "internalType": "address",
          "name": "tokenAddress",
          "type": "address"
        },
        {
          "indexed": false,
          "internalType": "uint256",
          "name": "tokensTraded",
          "type": "uint256"
        },
        {
          "indexed": false,
          "internalType": "uint256",
          "name": "amountPaid",
          "type": "uint256"
        },
        {
          "indexed": false,
          "internalType": "uint256",
          "name": "fee",
          "type": "uint256"
        },
        {
          "indexed": false,
          "internalType": "uint256",
          "name": "timestamp",
          "type": "uint256"
        },
        {
          "indexed": false,
          "internalType": "bool",
          "name": "isBuy",
          "type": "bool"
        }
      ],
      "name": "TokenTraded",
      "type": "event"
    },
    {
      "inputs": [],
      "name": "BURN_ADDRESS",
      "outputs": [
        {
          "internalType": "address",
          "name": "",
          "type": "address"
        }
      ],
      "stateMutability": "view",
      "type": "function"
    },
    {
      "inputs": [],
      "name": "CURVE_CONSTANT",
      "outputs": [
        {
          "internalType": "uint256",
          "name": "",
          "type": "uint256"
        }
      ],
      "stateMutability": "view",
      "type": "function"
    },
    {
      "inputs": [],
      "name": "FEE_DENOMINATOR",
      "outputs": [
        {
          "internalType": "uint256",
          "name": "",
          "type": "uint256"
        }
      ],
      "stateMutability": "view",
      "type": "function"
    },
    {
      "inputs": [],
      "name": "INIT_REAL_TOKEN_RESERVE",
      "outputs": [
        {
          "internalType": "uint256",
          "name": "",
          "type": "uint256"
        }
      ],
      "stateMutability": "view",
      "type": "function"
    },
    {
      "inputs": [],
      "name": "INIT_VIRTUAL_TOKEN_RESERVE",
      "outputs": [
        {
          "internalType": "uint256",
          "name": "",
          "type": "uint256"
        }
      ],
      "stateMutability": "view",
      "type": "function"
    },
    {
      "inputs": [],
      "name": "TOTAL_SUPPLY",
      "outputs": [
        {
          "internalType": "uint256",
          "name": "",
          "type": "uint256"
        }
      ],
      "stateMutability": "view",
      "type": "function"
    },
    {
      "inputs": [],
      "name": "adminPaymentAddress",
      "outputs": [
        {
          "internalType": "address payable",
          "name": "",
          "type": "address"
        }
      ],
      "stateMutability": "view",
      "type": "function"
    },
    {
      "inputs": [
        {
          "internalType": "address",
          "name": "token",
          "type": "address"
        },
        {
          "internalType": "uint256",
          "name": "amountIn",
          "type": "uint256"
        }
      ],
      "name": "calcAmountOutFromEth",
      "outputs": [
        {
          "internalType": "uint256",
          "name": "",
          "type": "uint256"
        }
      ],
      "stateMutability": "view",
      "type": "function"
    },
    {
      "inputs": [
        {
          "internalType": "address",
          "name": "token",
          "type": "address"
        },
        {
          "internalType": "uint256",
          "name": "amountIn",
          "type": "uint256"
        }
      ],
      "name": "calcAmountOutFromToken",
      "outputs": [
        {
          "internalType": "uint256",
          "name": "",
          "type": "uint256"
        }
      ],
      "stateMutability": "view",
      "type": "function"
    },
    {
      "inputs": [
        {
          "internalType": "address",
          "name": "newAdminPaymentAddress",
          "type": "address"
        }
      ],
      "name": "changeAdminPaymentAddress",
      "outputs": [],
      "stateMutability": "nonpayable",
      "type": "function"
    },
    {
      "inputs": [
        {
          "internalType": "uint256",
          "name": "value",
          "type": "uint256"
        }
      ],
      "name": "changeCreationFee",
      "outputs": [],
      "stateMutability": "nonpayable",
      "type": "function"
    },
    {
      "inputs": [
        {
          "internalType": "uint256",
          "name": "value",
          "type": "uint256"
        }
      ],
      "name": "changeDeployLiquidityFee",
      "outputs": [],
      "stateMutability": "nonpayable",
      "type": "function"
    },
    {
      "inputs": [
        {
          "internalType": "uint256",
          "name": "value",
          "type": "uint256"
        }
      ],
      "name": "changeInitVirtualEthReserve",
      "outputs": [],
      "stateMutability": "nonpayable",
      "type": "function"
    },
    {
      "inputs": [
        {
          "internalType": "uint256",
          "name": "value",
          "type": "uint256"
        }
      ],
      "name": "changeTransactionFeePercent",
      "outputs": [],
      "stateMutability": "nonpayable",
      "type": "function"
    },
    {
      "inputs": [
        {
          "components": [
            {
              "internalType": "string",
              "name": "name",
              "type": "string"
            },
            {
              "internalType": "string",
              "name": "symbol",
              "type": "string"
            },
            {
              "internalType": "string",
              "name": "description",
              "type": "string"
            },
            {
              "internalType": "string",
              "name": "logo",
              "type": "string"
            },
            {
              "internalType": "string",
              "name": "banner",
              "type": "string"
            },
            {
              "internalType": "string",
              "name": "twitter",
              "type": "string"
            },
            {
              "internalType": "string",
              "name": "telegram",
              "type": "string"
            },
            {
              "internalType": "string",
              "name": "website",
              "type": "string"
            },
            {
              "internalType": "address",
              "name": "routerAddress",
              "type": "address"
            },
            {
              "internalType": "uint256",
              "name": "initialCreatorBuy",
              "type": "uint256"
            }
          ],
          "internalType": "struct TokenCreateInfo",
          "name": "tokenInfo",
          "type": "tuple"
        }
      ],
      "name": "createToken",
      "outputs": [
        {
          "internalType": "address",
          "name": "",
          "type": "address"
        }
      ],
      "stateMutability": "payable",
      "type": "function"
    },
    {
      "inputs": [],
      "name": "deployLiquidityFee",
      "outputs": [
        {
          "internalType": "uint256",
          "name": "",
          "type": "uint256"
        }
      ],
      "stateMutability": "view",
      "type": "function"
    },
    {
      "inputs": [
        {
          "internalType": "address",
          "name": "owner",
          "type": "address"
        },
        {
          "internalType": "uint256",
          "name": "skip",
          "type": "uint256"
        },
        {
          "internalType": "uint256",
          "name": "take",
          "type": "uint256"
        }
      ],
      "name": "getOwnerTokens",
      "outputs": [
        {
          "internalType": "address[]",
          "name": "",
          "type": "address[]"
        }
      ],
      "stateMutability": "view",
      "type": "function"
    },
    {
      "inputs": [
        {
          "internalType": "address",
          "name": "owner",
          "type": "address"
        }
      ],
      "name": "getOwnerTokensCount",
      "outputs": [
        {
          "internalType": "uint256",
          "name": "",
          "type": "uint256"
        }
      ],
      "stateMutability": "view",
      "type": "function"
    },
    {
      "inputs": [
        {
          "internalType": "address",
          "name": "token",
          "type": "address"
        }
      ],
      "name": "getTokenCreator",
      "outputs": [
        {
          "internalType": "address",
          "name": "",
          "type": "address"
        }
      ],
      "stateMutability": "view",
      "type": "function"
    },
    {
      "inputs": [],
      "name": "initVirtualEthReserve",
      "outputs": [
        {
          "internalType": "uint256",
          "name": "",
          "type": "uint256"
        }
      ],
      "stateMutability": "view",
      "type": "function"
    },
    {
      "inputs": [],
      "name": "maxGasPrice",
      "outputs": [
        {
          "internalType": "uint256",
          "name": "",
          "type": "uint256"
        }
      ],
      "stateMutability": "view",
      "type": "function"
    },
    {
      "inputs": [],
      "name": "migrationThreshold",
      "outputs": [
        {
          "internalType": "uint256",
          "name": "",
          "type": "uint256"
        }
      ],
      "stateMutability": "view",
      "type": "function"
    },
    {
      "inputs": [],
      "name": "owner",
      "outputs": [
        {
          "internalType": "address",
          "name": "",
          "type": "address"
        }
      ],
      "stateMutability": "view",
      "type": "function"
    },
    {
      "inputs": [
        {
          "internalType": "address",
          "name": "",
          "type": "address"
        },
        {
          "internalType": "uint256",
          "name": "",
          "type": "uint256"
        }
      ],
      "name": "ownerTokens",
      "outputs": [
        {
          "internalType": "address",
          "name": "",
          "type": "address"
        }
      ],
      "stateMutability": "view",
      "type": "function"
    },
    {
      "inputs": [],
      "name": "paused",
      "outputs": [
        {
          "internalType": "bool",
          "name": "",
          "type": "bool"
        }
      ],
      "stateMutability": "view",
      "type": "function"
    },
    {
      "inputs": [],
      "name": "renounceOwnership",
      "outputs": [],
      "stateMutability": "nonpayable",
      "type": "function"
    },
    {
      "inputs": [
        {
          "internalType": "address",
          "name": "",
          "type": "address"
        }
      ],
      "name": "routersSupported",
      "outputs": [
        {
          "internalType": "bool",
          "name": "",
          "type": "bool"
        }
      ],
      "stateMutability": "view",
      "type": "function"
    },
    {
      "inputs": [
        {
          "internalType": "uint256",
          "name": "_maxGasPrice",
          "type": "uint256"
        }
      ],
      "name": "setMaxGasPrice",
      "outputs": [],
      "stateMutability": "nonpayable",
      "type": "function"
    },
    {
      "inputs": [
        {
          "internalType": "bool",
          "name": "_val",
          "type": "bool"
        }
      ],
      "name": "setPaused",
      "outputs": [],
      "stateMutability": "nonpayable",
      "type": "function"
    },
    {
      "inputs": [
        {
          "internalType": "address",
          "name": "token",
          "type": "address"
        },
        {
          "internalType": "uint256",
          "name": "amountIn",
          "type": "uint256"
        },
        {
          "internalType": "uint256",
          "name": "amountOutMin",
          "type": "uint256"
        },
        {
          "internalType": "uint256",
          "name": "deadline",
          "type": "uint256"
        }
      ],
      "name": "swapEthForTokens",
      "outputs": [
        {
          "internalType": "uint256",
          "name": "amountOut",
          "type": "uint256"
        }
      ],
      "stateMutability": "payable",
      "type": "function"
    },
    {
      "inputs": [
        {
          "internalType": "address",
          "name": "token",
          "type": "address"
        },
        {
          "internalType": "uint256",
          "name": "tokensIn",
          "type": "uint256"
        },
        {
          "internalType": "uint256",
          "name": "amountOutMin",
          "type": "uint256"
        },
        {
          "internalType": "uint256",
          "name": "deadline",
          "type": "uint256"
        }
      ],
      "name": "swapTokensForEth",
      "outputs": [
        {
          "internalType": "uint256",
          "name": "amountOut",
          "type": "uint256"
        }
      ],
      "stateMutability": "nonpayable",
      "type": "function"
    },
    {
      "inputs": [
        {
          "internalType": "address",
          "name": "_dexRouterAddress",
          "type": "address"
        },
        {
          "internalType": "bool",
          "name": "supported",
          "type": "bool"
        }
      ],
      "name": "switchDexRouterSupport",
      "outputs": [],
      "stateMutability": "nonpayable",
      "type": "function"
    },
    {
      "inputs": [],
      "name": "tokenCreateFee",
      "outputs": [
        {
          "internalType": "uint256",
          "name": "",
          "type": "uint256"
        }
      ],
      "stateMutability": "view",
      "type": "function"
    },
    {
      "inputs": [
        {
          "internalType": "address",
          "name": "",
          "type": "address"
        }
      ],
      "name": "tokenCreators",
      "outputs": [
        {
          "internalType": "address",
          "name": "",
          "type": "address"
        }
      ],
      "stateMutability": "view",
      "type": "function"
    },
    {
      "inputs": [
        {
          "internalType": "address",
          "name": "",
          "type": "address"
        }
      ],
      "name": "tokenPool",
      "outputs": [
        {
          "internalType": "contract FunTokenV2",
          "name": "token",
          "type": "address"
        },
        {
          "internalType": "uint256",
          "name": "tokenReserve",
          "type": "uint256"
        },
        {
          "internalType": "uint256",
          "name": "virtualTokenReserve",
          "type": "uint256"
        },
        {
          "internalType": "uint256",
          "name": "ethReserve",
          "type": "uint256"
        },
        {
          "internalType": "uint256",
          "name": "virtualEthReserve",
          "type": "uint256"
        },
        {
          "internalType": "uint256",
          "name": "lastPrice",
          "type": "uint256"
        },
        {
          "internalType": "uint256",
          "name": "lastMcapInEth",
          "type": "uint256"
        },
        {
          "internalType": "uint256",
          "name": "lastTimestamp",
          "type": "uint256"
        },
        {
          "internalType": "uint256",
          "name": "lastBlock",
          "type": "uint256"
        },
        {
          "internalType": "address",
          "name": "creator",
          "type": "address"
        },
        {
          "internalType": "address",
          "name": "routerAddress",
          "type": "address"
        },
        {
          "internalType": "bool",
          "name": "migrated",
          "type": "bool"
        }
      ],
      "stateMutability": "view",
      "type": "function"
    },
    {
      "inputs": [],
      "name": "transactionFeePercent",
      "outputs": [
        {
          "internalType": "uint256",
          "name": "",
          "type": "uint256"
        }
      ],
      "stateMutability": "view",
      "type": "function"
    },
    {
      "inputs": [
        {
          "internalType": "address",
          "name": "newOwner",
          "type": "address"
        }
      ],
      "name": "transferOwnership",
      "outputs": [],
      "stateMutability": "nonpayable",
      "type": "function"
    },
    {
      "inputs": [
        {
          "internalType": "address",
          "name": "to",
          "type": "address"
        },
        {
          "internalType": "uint256",
          "name": "amount",
          "type": "uint256"
        }
      ],
      "name": "withdrawFee",
      "outputs": [],
      "stateMutability": "nonpayable",
      "type": "function"
    },
    {
      "stateMutability": "payable",
      "type": "receive"
    }
  ],
  "transactionHash": "0x60ab337aa16cdbd07e6bffee8f2b53a2213ff373292a23b41511bdedaafa7c50",
  "args": [
    "1200000000000000000000",
    "500000000000000000",
    "500000000000000000000",
    100,
    [
      "0xFeE7Cc22453Da768Ea1c9784a09c00dCcaE83dE8",
      "0x82b56Dd9c7FD5A977255BA51B96c3D97fa1Af9A9",
      "0x0000000000000000000000000000000000000000",
      "0x0000000000000000000000000000000000000000"
    ],
    "1000000000000000000"
  ],
  "numDeployments": 1,
  "solcInputHash": "46f768076bad1bb7bf9fb7247381a5e3",
  "bytecode": "0x6080604052346102165760405161468c3881900390601f8201601f19168301906001600160401b0382118483101761021b57829160405283398101610120828203126102165781519060208301519060408401519160608501519180609f870112156102165760405195608087016001600160401b0381118882101761021b576040528690610100810192831161021657608001905b8282106101f65750505192600160005533156101e05760018054336001600160a01b0319821681179092556001600160a01b03167f8be0079c531659141344cd1fd0a4f28419497f9722a3daafe3b4186f6b6457e0600080a33360018060a01b0319600854161760085560055560065560075560ff19600a5416600a55600e55806002556b037790968dc8efffd100000081028181046b037790968dc8efffd100000014821517156101ca57806ae787216768429d2180000091600455049081039081116101ca5760035560005b6004811061017a5760405161443390816102598239f35b6001906001600160a01b0361018f8285610231565b511661019c575b01610163565b818060a01b036101ac8285610231565b5116600052600960205260406000208260ff19825416179055610196565b634e487b7160e01b600052601160045260246000fd5b631e4fbdf760e01b600052600060045260246000fd5b81516001600160a01b038116810361021657815260209182019101610095565b600080fd5b634e487b7160e01b600052604160045260246000fd5b9060048110156102425760051b0190565b634e487b7160e01b600052603260045260246000fdfe608080604052600436101561001d575b50361561001b57600080fd5b005b600090813560e01c908163045b8d7814611f3a575080630c8f5e0014611f1c57806313330a9514611efe57806316c38b3c14611ec65780631f0cc87414611dfc57806328b6003114611d9b578063320a006014611d7d5780633de39c1114611d5f5780634818fadd146117645780634b103bfa1461173d5780635c975abb1461171a57806360bf8c9f146116d55780636577327e146116ad578063715018a61461165057806371563f14146116175780638238e9da14611547578063836554671461105a578063852155c51461103c5780638da5cb5b14611013578063902d55a514610fec57806390bc1e8514610fce5780639ff1525514610fab578063a134ddf714610f84578063a1596c4c14610f61578063b242483e1461054e578063bd5ef67914610525578063c0852212146104e6578063c1edd5bc146104b3578063c78418b914610472578063ce7e8de814610472578063d2fa635e1461044f578063d73792a914610432578063dc8fdf2b146103ab578063ecc78cde1461032d578063f2fde38b146102a4578063f91ef14614610281578063fccc2813146102645763fd9be5220361000f5734610261576040366003190112610261576101e1611f56565b602435906101ed61219f565b8047831061025257839283928392839291906001600160a01b031615610240575b82908215610236575b6001600160a01b031690f11561022a5780f35b604051903d90823e3d90fd5b6108fc9150610217565b506008546001600160a01b031661020e565b63569d45cf60e11b8452600484fd5b80fd5b5034610261578060031936011261026157602060405161dead8152f35b50346102615760203660031901126102615761029b61219f565b60043560055580f35b5034610261576020366003190112610261576102be611f56565b6102c661219f565b6001600160a01b0316801561031957600180546001600160a01b0319811683179091556001600160a01b03167f8be0079c531659141344cd1fd0a4f28419497f9722a3daafe3b4186f6b6457e08380a380f35b631e4fbdf760e01b82526004829052602482fd5b50346102615760203660031901126102615760043561034a61219f565b806002556b037790968dc8efffd100000081028181046b037790968dc8efffd1000000148215171561039757906ae787216768429d218000008261039193600455046120d1565b60035580f35b634e487b7160e01b83526011600452602483fd5b5034610261576040366003190112610261576103c5611f56565b6024359081151580920361042e576103db61219f565b6001600160a01b031680151580610413575b6103f5578280f35b82526009602052604082209060ff8019835416911617905538808280f35b5080835260096020528160ff604085205416151514156103ed565b8280fd5b503461026157806003193601126102615760206040516127108152f35b50346102615760203660031901126102615761046961219f565b600435600e5580f35b5034610261576020366003190112610261576020906001600160a01b03610497611f56565b168152600d8252604060018060a01b0391205416604051908152f35b50346102615760403660031901126102615760206104db6104d2611f56565b60243590612c66565b915050604051908152f35b50346102615760203660031901126102615760209060ff906040906001600160a01b03610511611f56565b168152600984522054166040519015158152f35b50346102615780600319360112610261576008546040516001600160a01b039091168152602090f35b5061055836612069565b61056a600e94939454803a1115612150565b610572612b94565b60ff600a5416610f52574211610f43578234106107d0578215610f345760ff600a5416610f25576001600160a01b038216808552600b60205260408520600a01549092849160a01c60ff16156107df5750508234106107d0576127106105da6007548561216c565b04906040516105ea606082611fdc565b600281526040366020830137838652600b60205260018060a01b03600a60408820015416906040516315ab88c960e31b8152602081600481865afa9081156107c5578891610796575b5061063d826120de565b6001600160a01b03909116905284610654826120eb565b5261065f84876120d1565b603c420193844211610782579188939161069d9360405196879586948593637ff36ab560e01b85526004850152608060248501526084840190611f71565b90336044840152606483015203925af1908115610777578591610755575b50805160001981019190821161074157916000805160206143de8339815191526107356106ee60019694602099966120fb565b519261070381888060a01b03600854166121c8565b92965b604051918291339542918b8590949360019360809360a084019784526020840152604083015260608201520152565b0390a355604051908152f35b634e487b7160e01b86526011600452602486fd5b61077191503d8087833e6107698183611fdc565b810190612bed565b386106bb565b6040513d87823e3d90fd5b634e487b7160e01b89526011600452602489fd5b6107b8915060203d6020116107be575b6107b08183611fdc565b810190612bb6565b38610633565b503d6107a6565b6040513d8a823e3d90fd5b63cd1c886760e01b8452600484fd5b909193506107fd6127106107f56007548561216c565b0480936120d1565b906108128360018060a01b03600854166121c8565b838652600b60205260408620600901546001600160a01b031615610ed05761084361083d84846120ae565b82612c66565b80929192978110610f1657908891878352600b602052816004604085200155878352600b6020528360026040852001557812725dd1d243aba0e75fe645cc4873f9e65afe688c928e1f218211670de0b6b3a7640000021584021561042e57602093670de0b6b3a76400006044938a8652600b875202046005604085200155878352600b84526108d86005604085200154612213565b888452600b85526006604085200155878352600b8452426007604085200155878352600b8452436008604085200155878352600b8452600360408420016109208782546120ae565b9055878352600b84526001604084200161093b8282546120d1565b90556040519063a9059cbb60e01b8252336004830152602482015282885af13d15601f3d11600189511416171615610edf57838652600b6020526005604087200154848752600b602052846000805160206143be8339815191526109c2600660408b2001549360405191829133964291846040919493926060820195825260208201520152565b0390a3838652600b602052600360408720015460035411156109ff575b5091602094916000805160206143de833981519152610735600195610706565b838652600b60205260408620600901546001600160a01b031615610ed057838652600b6020526040862090426007830155436008830155600554600383019281845410610ec157600854610a5d9083906001600160a01b03166121c8565b610a688285546120d1565b93844710610eb257873b15610eae5760405163538a035b60e11b8152600160048201528a81602481838d5af18015610ea357610e8f575b50600a8201805460405163095ea7b360e01b81526001600160a01b0390911660048201526aab24c7796fd2da3880000060248201526020816044818f8e5af1908115610cf3578c91610e60575b5015610e5157805460405163c45a015560e01b81526001600160a01b03909116908c90602081600481865afa908115610e46578291610e27575b506040516315ab88c960e31b8152976001600160a01b039190911690602089600481875afa988915610dff57610b92996020918591610e0a575b5060405163e6a4390560e01b81526001600160a01b0380851660048301529091166024820152998a9081906044820190565b0381855afa988915610dff578399610dde575b506001600160a01b03891615610d12575b50505060b44201804211610cfe5760609060c48c8a604051958694859363f305d71960e01b855260048501526aab24c7796fd2da3880000060248501526aab24c7796fd2da38800000604485015282606485015261dead608485015260a48401525af18015610cf357610cc4575b50977f45e0138524e8e986db2e903bd136921b310f125b318c3366afff4e6fab7086b860806000805160206143de83398151915296610735968e60209f9c9a96869c9860019f60019284918460a01b60ff60a01b198254161790558160048401558160028401555501556040519586526aab24c7796fd2da388000008f87015260408601524260608601528b8060a01b031693a3939550505091946109df565b606090813d8311610cec575b610cda8183611fdc565b81010312610ce85738610c24565b8a80fd5b503d610cd0565b6040513d8e823e3d90fd5b634e487b7160e01b8d52601160045260248dfd5b6040516315ab88c960e31b8152939850919291906020836004818c5afa918215610dd35784602094610d799694610db4575b506040516364e329cb60e11b81526001600160a01b039283166004820152919093166024820152938492839182906044820190565b03925af1908115610cf3578c91610d95575b50948b3880610bb6565b610dae915060203d6020116107be576107b08183611fdc565b38610d8b565b610dcc919450853d87116107be576107b08183611fdc565b9238610d44565b6040513d86823e3d90fd5b610df891995060203d6020116107be576107b08183611fdc565b9738610ba5565b6040513d85823e3d90fd5b610e219150823d84116107be576107b08183611fdc565b38610b60565b610e40915060203d6020116107be576107b08183611fdc565b38610b26565b6040513d84823e3d90fd5b63b7de570f60e01b8b5260048bfd5b610e82915060203d602011610e88575b610e7a8183611fdc565b810190612bd5565b38610aec565b503d610e70565b8a610e9c919b929b611fdc565b9838610a9f565b6040513d8d823e3d90fd5b8980fd5b63569d45cf60e11b8a5260048afd5b6321c7f7ed60e01b8952600489fd5b63c1ab6dc160e01b8652600486fd5b60405162461bcd60e51b815260206004820152600f60248201526e1514905394d1915497d19052531151608a1b6044820152606490fd5b63bb2875c360e01b8952600489fd5b6313d0ff5960e31b8452600484fd5b6365719fe160e11b8452600484fd5b63559895a360e01b8452600484fd5b6313d0ff5960e31b8552600485fd5b503461026157602036600319011261026157610f7b61219f565b60043560065580f35b503461026157806003193601126102615760206040516b037790968dc8efffd10000008152f35b503461026157602036600319011261026157610fc561219f565b60043560075580f35b50346102615780600319360112610261576020600354604051908152f35b503461026157806003193601126102615760206040516b033b2e3c9fd0803ce80000008152f35b50346102615780600319360112610261576001546040516001600160a01b039091168152602090f35b50346102615780600319360112610261576020600554604051908152f35b50346102615761106936612069565b61107b600e94939454803a1115612150565b611083612b94565b60ff600a5416610f52574211610f43578215610f34576040516323b872dd60e01b8152336004820152306024820152604481018490526001600160a01b0383169290602090869060649082875af13d15601f3d1160018851141617161561150b57828552600b60205260408520600a015460a01c60ff1615611332575060405161110e606082611fdc565b60028152604036602083013782611124826120de565b52828552600b60205260018060a01b03600a60408720015416906040516315ab88c960e31b8152602081600481865afa908115611308578791611313575b5061116c826120eb565b6001600160a01b03909116905260405163095ea7b360e01b815260048101839052602481018690526020816044818a895af18015611308576112eb575b50603c4201928342116112d757916111ee91878094604051968795869485936318cbafe560e01b85528c6004860152602485015260a0604485015260a4840190611f71565b90306064840152608483015203925af1908115610dd35784916112bd575b5080516000198101919082116112a9579161122c602095926001946120fb565b519361126e6127106112406007548861216c565b04809661125682888060a01b03600854166121c8565b61126961126383836120d1565b336121c8565b6120d1565b945b604051918252858783015260408201524260608201528260808201526000805160206143de83398151915260a03392a355604051908152f35b634e487b7160e01b85526011600452602485fd5b6112d191503d8086833e6107698183611fdc565b3861120c565b634e487b7160e01b87526011600452602487fd5b6113039060203d602011610e8857610e7a8183611fdc565b6111a9565b6040513d89823e3d90fd5b61132c915060203d6020116107be576107b08183611fdc565b38611162565b828552600b60205260408520600901549193916001600160a01b0316156114fc578161135d91612b10565b848793929352600b602052826002604089200155848752600b6020528160046040892001557812725dd1d243aba0e75fe645cc4873f9e65afe688c928e1f218211670de0b6b3a764000002158302156114f85761146e92670de0b6b3a7640000611474930204858852600b6020526005604089200155848752600b6020526113eb6005604089200154612213565b858852600b6020526006604089200155848752600b602052426007604089200155848752600b602052436008604089200155848752600b602052600160408820016114378582546120ae565b9055848752600b602052600360408820016114538282546120d1565b90556127106114646007548361216c565b04928380926120d1565b956120d1565b84106114e957916020949183611495600195868060a01b03600854166121c8565b61149f86336121c8565b828452600b80885260408086206005015485875291895280862060060154815192835260208301524290820152339084906000805160206143be83398151915290606090a3611270565b63bb2875c360e01b8552600485fd5b8680fd5b63c1ab6dc160e01b8552600485fd5b60405162461bcd60e51b81526020600482015260146024820152731514905394d1915497d19493d357d1905253115160621b6044820152606490fd5b503461026157602036600319011261026157610180906040906001600160a01b03611570611f56565b168152600b6020522060ff60018060a01b03825416916001810154906002810154600382015460048301546005840154600685015491600786015493600887015495600a60018060a01b0360098a015416980154986040519b8c5260208c015260408b015260608a0152608089015260a088015260c087015260e086015261010085015261012084015260018060a01b03811661014084015260a01c161515610160820152f35b5034610261576020366003190112610261576020906040906001600160a01b0361163f611f56565b168152600c83522054604051908152f35b503461026157806003193601126102615761166961219f565b600180546001600160a01b0319811690915581906001600160a01b03167f8be0079c531659141344cd1fd0a4f28419497f9722a3daafe3b4186f6b6457e08280a380f35b50346102615760403660031901126102615760206104db6116cc611f56565b60243590612b10565b5034610261576020366003190112610261576116ef611f56565b6116f761219f565b60018060a01b03166bffffffffffffffffffffffff60a01b600854161760085580f35b5034610261578060031936011261026157602060ff600a54166040519015158152f35b503461026157806003193601126102615760206040516b029009752660ad62af8000008152f35b506020366003190112610261576004356001600160401b038111611d5b576101406003198236030112611d5b576040519061014082018281106001600160401b03821117611d475760405280600401356001600160401b038111611d43576117d29060043691840101612013565b825260248101356001600160401b038111611d43576117f79060043691840101612013565b602083015260448101356001600160401b038111611d435761181f9060043691840101612013565b604083015260648101356001600160401b038111611d43576118479060043691840101612013565b606083015260848101356001600160401b038111611d435761186f9060043691840101612013565b608083015260a48101356001600160401b038111611d43576118979060043691840101612013565b60a083015260c48101356001600160401b038111611d43576118bf9060043691840101612013565b60c083015260e48101356001600160401b038111611d43576118e79060043691840101612013565b60e0830152610104810135906001600160a01b0382168203611d435761012491610100840152013561012082015260ff600a5416611d3457600654611931610120830151826120ae565b3410611d255780611d09575b508051602082015160018060a01b03610100840151169060405192836116bc8101106001600160401b036116bc86011117611cf5578392916119956119ab926116bc612d02873960c06116bc8701818152019061210f565b906116bc8501820360206116bc8701015261210f565b306116bc840160408101919091523360608201526b033b2e3c9fd0803ce8000000608082015260a00191909152039083f08015610e465760018060a01b031690818352600b60205260408320826bffffffffffffffffffffffff60a01b8254161781556b029009752660ad62af80000060018201556b037790968dc8efffd100000060028201558360038201556002548060048301557812725dd1d243aba0e75fe645cc4873f9e65afe688c928e1f218111670de0b6b3a764000002156b037790968dc8efffd10000000215611cf157670de0b6b3a76400006b037790968dc8efffd1000000910204611aa46005830191808355612213565b600683019081554260078401554360088401556009830180546001600160a01b03191633908117909155610100850151600a90940180546001600160a81b0319166001600160a01b039590951694909417909355918552600c60205260408520805468010000000000000000811015611cdd5790816001879493018255611b2a91611fae565b81546001600160a01b0360039290921b82811b199091169085901b17909155828752600d6020908152604080892080546001600160a01b0319163317905586519187015187820151606089015160808a015160a08b015160c08c015160e08d01516101008e015197516101408082528d9b99909916999098919792969395939291611bb891908a019061210f565b88810360208a0152611bc99161210f565b8781036040890152611bda9161210f565b8681036060880152611beb9161210f565b8581036080870152611bfc9161210f565b84810360a0860152611c0d9161210f565b83810360c0850152611c1e9161210f565b82810360e0840152611c2f9161210f565b9161010082015242610120820152803392037f390103165c5f856d353bba70b98946079ec1ba8d90ef71f0d614a1216006048391a3549154604080519384526020840191909152429083015233916000805160206143be83398151915290606090a3610120015180611ca7575b602082604051908152f35b6103e8420192834211611cc95750602092611cc2918361225a565b5038611c9c565b634e487b7160e01b81526011600452602490fd5b634e487b7160e01b87526041600452602487fd5b8480fd5b634e487b7160e01b86526041600452602486fd5b600854611d1f91906001600160a01b03166121c8565b3861193d565b63cd1c886760e01b8352600483fd5b6313d0ff5960e31b8252600482fd5b8380fd5b634e487b7160e01b84526041600452602484fd5b5080fd5b50346102615780600319360112610261576020600e54604051908152f35b50346102615780600319360112610261576020600254604051908152f35b503461026157604036600319011261026157611db5611f56565b6001600160a01b03168152600c6020526040812080546024359290831015610261576020611de38484611fae565b905460405160039290921b1c6001600160a01b03168152f35b503461026157606036600319011261026157611e16611f56565b9060243560443591611e2783612097565b93611e356040519586611fdc565b838552601f19611e4485612097565b013660208701376001600160a01b0316825b611e6085856120ae565b811015611eac576001611e6091838552600c602052611e828160408720611fae565b838060a01b0391549060031b1c16611ea3611e9d88846120d1565b8a6120fb565b52019050611e56565b60405160208082528190611ec290820189611f71565b0390f35b503461026157602036600319011261026157600435801515809103611d5b57611eed61219f565b60ff8019600a5416911617600a5580f35b50346102615780600319360112610261576020600654604051908152f35b50346102615780600319360112610261576020600754604051908152f35b905034611d5b5781600319360112611d5b576020906004548152f35b600435906001600160a01b0382168203611f6c57565b600080fd5b906020808351928381520192019060005b818110611f8f5750505090565b82516001600160a01b0316845260209384019390920191600101611f82565b8054821015611fc65760005260206000200190600090565b634e487b7160e01b600052603260045260246000fd5b90601f801991011681019081106001600160401b03821117611ffd57604052565b634e487b7160e01b600052604160045260246000fd5b81601f82011215611f6c578035906001600160401b038211611ffd5760405192612047601f8401601f191660200185611fdc565b82845260208383010111611f6c57816000926020809301838601378301015290565b6080906003190112611f6c576004356001600160a01b0381168103611f6c5790602435906044359060643590565b6001600160401b038111611ffd5760051b60200190565b919082018092116120bb57565b634e487b7160e01b600052601160045260246000fd5b919082039182116120bb57565b805115611fc65760200190565b805160011015611fc65760400190565b8051821015611fc65760209160051b010190565b919082519283825260005b84811061213b575050826000602080949584010152601f8019910116010190565b8060208092840101518282860101520161211a565b156121585750565b6348a8390360e01b60005260045260246000fd5b818102929181159184041417156120bb57565b8115612189570490565b634e487b7160e01b600052601260045260246000fd5b6001546001600160a01b031633036121b357565b63118cdaa760e01b6000523360045260246000fd5b600080809381935af1156121d857565b60405162461bcd60e51b815260206004820152601360248201527211551217d514905394d1915497d19052531151606a1b6044820152606490fd5b80600019046b033b2e3c9fd0803ce800000011810215670de0b6b3a76400000215611f6c576b033b2e3c9fd0803ce800000002670de0b6b3a7640000808204910615150190565b909160009060ff600a5416611d34574211612b01578215612af2576001600160a01b038216808252600b60205260408220600a0154909290829060a01c60ff161561245a57505082341061244b576127106122b76007548561216c565b04906040516122c7606082611fdc565b600281526040366020830137838252600b60205260018060a01b03600a604084200154166040516315ab88c960e31b8152602081600481855afa908115610dd357849161242c575b50612319836120de565b6001600160a01b03909116905284612330836120eb565b5261233b84876120d1565b91603c4201928342116112a95791612379918593604051809681958294637ff36ab560e01b8452886004850152608060248501526084840190611f71565b90336044840152606483015203925af1908115610e46578291612412575b508051600019810192908311611cc957506123c46000805160206143de8339815191529261240c926120fb565b51926123da8160018060a01b03600854166121c8565b92945b60405191829133954291898590949360019360809360a084019784526020840152604083015260608201520152565b0390a390565b61242691503d8084833e6107698183611fdc565b38612397565b612445915060203d6020116107be576107b08183611fdc565b3861230f565b63cd1c886760e01b8152600490fd5b838352600b602052604083206009015491959492939290916001600160a01b031615612ae3578381018082116112a9576124949087612c66565b6000868152600b602052604081206004810185905560020183905590965091869190670de0b6b3a76400007812725dd1d243aba0e75fe645cc4873f9e65afe688c928e1f2182110215820215611d43576020928492670de0b6b3a76400006044938a8652600b875202046005604085200155878352600b845261251d6005604085200154612213565b888452600b85526006604085200155878352600b8452426007604085200155878352600b8452436008604085200155878352600b8452600360408420016125658782546120ae565b9055878352600b8452600160408420016125808282546120d1565b90556040519063a9059cbb60e01b8252336004830152602482015282885af13d15601f3d11600184511416171615610edf57838152600b6020526005604082200154848252600b602052846000805160206143be83398151915261260760066040862001549360405191829133964291846040919493926060820195825260208201520152565b0390a3838152600b60205260036040822001546003541115612643575b506000805160206143de83398151915291929394955061240c906123dd565b838152600b60205260408120600901546001600160a01b031615612ad457838152600b602052604081209042600783015543600883015560055490600383019282845410612ac5576008546126a29084906001600160a01b03166121c8565b6126ad8385546120d1565b93844710612ab657873b1561042e5760405163538a035b60e11b8152600160048201528381602481838d5af18015610dd357612aa2575b50600a8201805460405163095ea7b360e01b81526001600160a01b0390911660048201526aab24c7796fd2da388000006024820152602081604481888e5af1908115610777578591612a83575b5015612a7457805460405163c45a015560e01b81529c6001600160a01b039091169060208e600481855afa8015612a695760209e8791612a4b575b506040516315ab88c960e31b81529e6001600160a01b0391909116908f600481865afa9e8f15611308576127dc999a9b9c9d9e9f6020918991612a2e575b5060405163e6a4390560e01b81526001600160a01b0380861660048301529091166024820152998a9081906044820190565b0381845afa988915611308578799612a0d575b506001600160a01b0389161561294c575b505060b442018042116107415760609060c48d8b604051958694859363f305d71960e01b855260048501526aab24c7796fd2da3880000060248501526aab24c7796fd2da38800000604485015282606485015261dead608485015260a48401525af1801561077757908b97969594939291612913575b50805460ff60a01b1916600160a01b179055600482018390556002820183905582905560010155604080519485526aab24c7796fd2da3880000060208601528401524260608401526000805160206143de8339815191529361240c9390926001600160a01b0390921691907f45e0138524e8e986db2e903bd136921b310f125b318c3366afff4e6fab7086b890608090a390869594939250612624565b60608092939495969798503d8311612945575b6129308183611fdc565b81010312611d43579089959493929138612876565b503d612926565b6040516315ab88c960e31b8152929850906020836004818c5afa92831561130857916129b4939160209389936129ee575b506040516364e329cb60e11b81526001600160a01b0391821660048201529216602483015290928391908290899082906044820190565b03925af19081156107775785916129cf575b50953880612800565b6129e8915060203d6020116107be576107b08183611fdc565b386129c6565b612a06919350843d86116107be576107b08183611fdc565b913861297d565b612a2791995060203d6020116107be576107b08183611fdc565b97386127ef565b612a459150823d84116107be576107b08183611fdc565b386127aa565b8f612a6392503d6020116107be576107b08183611fdc565b3861276c565b6040513d88823e3d90fd5b63b7de570f60e01b8452600484fd5b612a9c915060203d602011610e8857610e7a8183611fdc565b38612731565b83612aaf91949294611fdc565b91386126e4565b63569d45cf60e11b8352600483fd5b6321c7f7ed60e01b8252600482fd5b63c1ab6dc160e01b8152600490fd5b63c1ab6dc160e01b8452600484fd5b6365719fe160e11b8152600490fd5b63559895a360e01b8152600490fd5b9190918215612b83576001600160a01b03166000818152600b60205260409020600201549092612b3f916120ae565b90612b4c8260045461217f565b92600052600b602052612b80612b6a846004604060002001546120d1565b612710612b796007548361216c565b04906120d1565b90565b6365719fe160e11b60005260046000fd5b600260005414612ba5576002600055565b633ee5aeb560e01b60005260046000fd5b90816020910312611f6c57516001600160a01b0381168103611f6c5790565b90816020910312611f6c57518015158103611f6c5790565b602081830312611f6c578051906001600160401b038211611f6c57019080601f83011215611f6c578151612c2081612097565b92612c2e6040519485611fdc565b81845260208085019260051b820101928311611f6c57602001905b828210612c565750505090565b8151815260209182019101612c49565b91908015612b8357612c84612ca591612710612b796007548361216c565b9260018060a01b03169283600052600b6020526004604060002001546120ae565b91612cb28360045461217f565b9181600052600b602052612cce836002604060002001546120d1565b9180600052600b6020526001604060002001548311612cea5750565b909150600052600b6020526001604060002001549056fe6101808060405234610511576116bc803803809161001d8285610516565b8339810160c0828203126105115781516001600160401b038111610511578161004791840161055c565b602083015190916001600160401b0382116105115761006791840161055c565b91610074604082016105b0565b610080606083016105b0565b61009160a0608085015194016105b0565b906040948551906100a28783610516565b60018252603160f81b6020830190815281519091906001600160401b03811161041b57600354600181811c91168015610507575b60208210146103fb57601f81116104a2575b50806020601f821160011461043c57600091610431575b508160011b916000199060031b1c1916176003555b88516001600160401b03811161041b57600454600181811c91168015610411575b60208210146103fb57601f8111610396575b506020601f821160011461032a5781906012999a9b60009261031f575b50508160011b916000199060031b1c1916176004555b610183816105c4565b6101205261019083610755565b6101405260208151910120918260e05251902080610100524660a05287519060208201927f8b73c3c69bb8fe3d512ecc4cf759cc79239f7b179b0ffacaa9a75d522b39400f84528983015260608201524660808201523060a082015260a081526101fb60c082610516565b5190206080523060c05260088054600980546001600160a81b03199081166001600160a01b0390971696909617905561016092909252921690821b610100600160a81b0316179190911790553315610309576002548181018091116102f35760025560003381528060205282812082815401905582519182527fddf252ad1be2c89b69c2b068fc378daa952ba7f163c4a11628f55a4df523b3ef60203393a351610e249081610898823960805181610ae9015260a05181610ba6015260c05181610ab3015260e05181610b3801526101005181610b5e01526101205181610427015261014051816104500152610160518161080a0152f35b634e487b7160e01b600052601160045260246000fd5b63ec442f0560e01b600052600060045260246000fd5b015190503880610164565b601f1982169a6004600052816000209b60005b81811061037e57509160129a9b9c91846001959410610365575b505050811b0160045561017a565b015160001960f88460031b161c19169055388080610357565b838301518e556001909d019c6020938401930161033d565b60046000527f8a35acfbc15ff81a39ae7d344fd709f28e8600b4aa8c65c6b64bfe7fe36bd19b601f830160051c810191602084106103f1575b601f0160051c01905b8181106103e55750610147565b600081556001016103d8565b90915081906103cf565b634e487b7160e01b600052602260045260246000fd5b90607f1690610135565b634e487b7160e01b600052604160045260246000fd5b9050820151386100ff565b600360009081528181209250601f198416905b81811061048a57509083600194939210610471575b5050811b01600355610114565b84015160001960f88460031b161c191690553880610464565b9192602060018192868901518155019401920161044f565b60036000527fc2575a0e9e593c00f959f8c92f12db2869c3395a3b0502d05e2516446f71f85b601f830160051c810191602084106104fd575b601f0160051c01905b8181106104f157506100e8565b600081556001016104e4565b90915081906104db565b90607f16906100d6565b600080fd5b601f909101601f19168101906001600160401b0382119082101761041b57604052565b60005b83811061054c5750506000910152565b818101518382015260200161053c565b81601f820112156105115780516001600160401b03811161041b576040519261058f601f8301601f191660200185610516565b81845260208284010111610511576105ad9160208085019101610539565b90565b51906001600160a01b038216820361051157565b9081516020811060001461063f575090601f8151116106005760208151910151602082106105f0571790565b6000198260200360031b1b161790565b6044604051809263305a27a960e01b8252602060048301526106318151809281602486015260208686019101610539565b601f01601f19168101030190fd5b6001600160401b03811161041b57600554600181811c9116801561074b575b60208210146103fb57601f8111610715575b50602092601f82116001146106b057928192936000926106a5575b50508160011b916000199060031b1c19161760055560ff90565b01519050388061068b565b601f198216936005600052806000209160005b8681106106fd57508360019596106106e4575b505050811b0160055560ff90565b015160001960f88460031b161c191690553880806106d6565b919260206001819286850151815501940192016106c3565b6005600052601f6020600020910160051c810190601f830160051c015b81811061073f5750610670565b60008155600101610732565b90607f169061065e565b90815160208110600014610781575090601f8151116106005760208151910151602082106105f0571790565b6001600160401b03811161041b57600654600181811c9116801561088d575b60208210146103fb57601f8111610857575b50602092601f82116001146107f257928192936000926107e7575b50508160011b916000199060031b1c19161760065560ff90565b0151905038806107cd565b601f198216936006600052806000209160005b86811061083f5750836001959610610826575b505050811b0160065560ff90565b015160001960f88460031b161c19169055388080610818565b91926020600181928685015181550194019201610805565b6006600052601f6020600020910160051c810190601f830160051c015b81811061088157506107b2565b60008155600101610874565b90607f16906107a056fe608080604052600436101561001357600080fd5b60003560e01c90816302d05d3f146107f75750806306fdde031461074f578063095ea7b31461071e57806318160ddd1461070057806323b872dd14610613578063313ce567146105f257806331a18ea1146105cc5780633268cc56146105a25780633644e5151461057f57806370a08231146105455780637ecebe001461050b57806384b0196e1461040e57806395d89b4114610329578063a71406b6146102cb578063a9059cbb1461029a578063d505accf146101305763dd62ed3e146100da57600080fd5b3461012b57604036600319011261012b576100f361087a565b6100fb610890565b6001600160a01b039182166000908152600160209081526040808320949093168252928352819020549051908152f35b600080fd5b3461012b5760e036600319011261012b5761014961087a565b610151610890565b604435906064359260843560ff8116810361012b5760ff60095460a01c1615610289578442116102745761023561023e9160018060a01b038416968760005260076020526040600020908154916001830190556040519060208201927f6e71edae12b1b97f4d1f60370fef10105fa2faae0126114a169c64845d6126c984528a604084015260018060a01b038916606084015289608084015260a083015260c082015260c0815261020360e082610963565b51902061020e610ab0565b906040519161190160f01b83526002830152602282015260c43591604260a4359220610cd1565b90929192610d66565b6001600160a01b031684810361025b57506102599350610bcc565b005b84906325c0072360e11b60005260045260245260446000fd5b8463313c898160e11b60005260045260246000fd5b63ad8c648b60e01b60005260046000fd5b3461012b57604036600319011261012b576102c06102b661087a565b60243590336109eb565b602060405160018152f35b3461012b57602036600319011261012b5760043580151580910361012b57600954906001600160a01b03821633036103185760ff60a01b1990911660a09190911b60ff60a01b1617600955005b633576bd7d60e21b60005260046000fd5b3461012b57600036600319011261012b57604051600060045461034b816108a6565b80845290600181169081156103ea575060011461038b575b6103878361037381850382610963565b604051918291602083526020830190610839565b0390f35b600460009081527f8a35acfbc15ff81a39ae7d344fd709f28e8600b4aa8c65c6b64bfe7fe36bd19b939250905b8082106103d057509091508101602001610373610363565b9192600181602092548385880101520191019092916103b8565b60ff191660208086019190915291151560051b840190910191506103739050610363565b3461012b57600036600319011261012b576104ad61044b7f0000000000000000000000000000000000000000000000000000000000000000610c33565b6104747f0000000000000000000000000000000000000000000000000000000000000000610c9a565b60206104bb604051926104878385610963565b600084526000368137604051958695600f60f81b875260e08588015260e0870190610839565b908582036040870152610839565b466060850152306080850152600060a085015283810360c085015281808451928381520193019160005b8281106104f457505050500390f35b8351855286955093810193928101926001016104e5565b3461012b57602036600319011261012b576001600160a01b0361052c61087a565b1660005260076020526020604060002054604051908152f35b3461012b57602036600319011261012b576001600160a01b0361056661087a565b1660005260006020526020604060002054604051908152f35b3461012b57600036600319011261012b57602061059a610ab0565b604051908152f35b3461012b57600036600319011261012b5760088054604051911c6001600160a01b03168152602090f35b3461012b57600036600319011261012b57602060ff60095460a01c166040519015158152f35b3461012b57600036600319011261012b57602060ff60085416604051908152f35b3461012b57606036600319011261012b5761062c61087a565b610634610890565b6001600160a01b0382166000818152600160208181526040808420338552909152909120549193604435939290918101610674575b506102c093506109eb565b8381106106e35784156106cd5733156106b7576102c0946000526001602052604060002060018060a01b0333166000526020528360406000209103905584610669565b634a1406b160e11b600052600060045260246000fd5b63e602df0560e01b600052600060045260246000fd5b8390637dc7a0d960e11b6000523360045260245260445260646000fd5b3461012b57600036600319011261012b576020600254604051908152f35b3461012b57604036600319011261012b57602061074561073c61087a565b6024359061099b565b6040519015158152f35b3461012b57600036600319011261012b576040516000600354610771816108a6565b80845290600181169081156103ea5750600114610798576103878361037381850382610963565b600360009081527fc2575a0e9e593c00f959f8c92f12db2869c3395a3b0502d05e2516446f71f85b939250905b8082106107dd57509091508101602001610373610363565b9192600181602092548385880101520191019092916107c5565b3461012b57600036600319011261012b577f00000000000000000000000000000000000000000000000000000000000000006001600160a01b03168152602090f35b919082519283825260005b848110610865575050826000602080949584010152601f8019910116010190565b80602080928401015182828601015201610844565b600435906001600160a01b038216820361012b57565b602435906001600160a01b038216820361012b57565b90600182811c921680156108d6575b60208310146108c057565b634e487b7160e01b600052602260045260246000fd5b91607f16916108b5565b600092918154916108f0836108a6565b8083529260018116908115610946575060011461090c57505050565b60009081526020812093945091925b83831061092c575060209250010190565b60018160209294939454838587010152019101919061091b565b915050602093945060ff929192191683830152151560051b010190565b90601f8019910116810190811067ffffffffffffffff82111761098557604052565b634e487b7160e01b600052604160045260246000fd5b6009549091906001600160a01b03808416908216149081156109dd575b506109ce5763ad8c648b60e01b60005260046000fd5b6109d89133610bcc565b600190565b60ff915060a01c16386109b8565b6001600160a01b0316908115610a9a576001600160a01b0316918215610a84576000828152806020526040812054828110610a6a5791604082827fddf252ad1be2c89b69c2b068fc378daa952ba7f163c4a11628f55a4df523b3ef958760209652828652038282205586815280845220818154019055604051908152a3565b916064928463391434e360e21b8452600452602452604452fd5b63ec442f0560e01b600052600060045260246000fd5b634b637e8f60e11b600052600060045260246000fd5b307f00000000000000000000000000000000000000000000000000000000000000006001600160a01b03161480610ba3575b15610b0b577f000000000000000000000000000000000000000000000000000000000000000090565b60405160208101907f8b73c3c69bb8fe3d512ecc4cf759cc79239f7b179b0ffacaa9a75d522b39400f82527f000000000000000000000000000000000000000000000000000000000000000060408201527f000000000000000000000000000000000000000000000000000000000000000060608201524660808201523060a082015260a08152610b9d60c082610963565b51902090565b507f00000000000000000000000000000000000000000000000000000000000000004614610ae2565b6001600160a01b03169081156106cd576001600160a01b03169182156106b75760207f8c5be1e5ebec7d5bd14f71427d1e84f3dd0314c0f7b2291e5b200ac8c7c3b925918360005260018252604060002085600052825280604060002055604051908152a3565b60ff8114610c7d5760ff811690601f8211610c6c576040805192610c578285610963565b6020808552840191601f190136833783525290565b632cd44ac360e21b60005260046000fd5b50604051610c9781610c908160056108e0565b0382610963565b90565b60ff8114610cbe5760ff811690601f8211610c6c576040805192610c578285610963565b50604051610c9781610c908160066108e0565b91907f7fffffffffffffffffffffffffffffff5d576e7357a4501ddfe92f46681b20a08411610d5a579160209360809260ff60009560405194855216868401526040830152606082015282805260015afa15610d4e576000516001600160a01b03811615610d425790600090600090565b50600090600190600090565b6040513d6000823e3d90fd5b50505060009160039190565b9190916004811015610dd85780610d7c57509050565b600060018203610d975763f645eedf60e01b60005260046000fd5b5060028103610db5578263fce698f760e01b60005260045260246000fd5b9091600360009214610dc5575050565b6335e2f38360e21b825260045260249150fd5b634e487b7160e01b600052602160045260246000fdfea264697066735822122082c1b8230f3e6d5f9ff61e47638aec57b6fc1243fc2789f21f82e27288b870ef64736f6c634300081a00339a3f414f907ddb77231900d221b663199d0a42096ca010e25f0bb7292c409b4e168eb057677dd2c21f909ac1bb527a53271269947bd5a150a96375fce5b9e7c4a26469706673582212209ab9987a6451f3fa6f6efdea4a0270a62e47c25bf8ffa0be979714de485d91b564736f6c634300081a0033",
  "devdoc": {
    "errors": {
      "OwnableInvalidOwner(address)": [
        {
          "details": "The owner is not a valid owner account. (eg. `address(0)`)"
        }
      ],
      "OwnableUnauthorizedAccount(address)": [
        {
          "details": "The caller account is not authorized to perform an operation."
        }
      ],
      "ReentrancyGuardReentrantCall()": [
        {
          "details": "Unauthorized reentrant call."
        }
      ]
    },
    "kind": "dev",
    "methods": {
      "owner()": {
        "details": "Returns the address of the current owner."
      },
      "renounceOwnership()": {
        "details": "Leaves the contract without owner. It will not be possible to call `onlyOwner` functions. Can only be called by the current owner. NOTE: Renouncing ownership will leave the contract without an owner, thereby disabling any functionality that is only available to the owner."
      },
      "transferOwnership(address)": {
        "details": "Transfers ownership of the contract to a new account (`newOwner`). Can only be called by the current owner."
      }
    },
    "version": 1
  },
  "userdoc": {
    "kind": "user",
    "methods": {},
    "version": 1
  },
  "storageLayout": {
    "storage": [
      {
        "astId": 1770,
        "contract": "contracts/V2/PopCoinFactoryV2.sol:PopCoinFactoryV2",
        "label": "_status",
        "offset": 0,
        "slot": "0",
        "type": "t_uint256"
      },
      {
        "astId": 8,
        "contract": "contracts/V2/PopCoinFactoryV2.sol:PopCoinFactoryV2",
        "label": "_owner",
        "offset": 0,
        "slot": "1",
        "type": "t_address"
      },
      {
        "astId": 8917,
        "contract": "contracts/V2/PopCoinFactoryV2.sol:PopCoinFactoryV2",
        "label": "initVirtualEthReserve",
        "offset": 0,
        "slot": "2",
        "type": "t_uint256"
      },
      {
        "astId": 8919,
        "contract": "contracts/V2/PopCoinFactoryV2.sol:PopCoinFactoryV2",
        "label": "migrationThreshold",
        "offset": 0,
        "slot": "3",
        "type": "t_uint256"
      },
      {
        "astId": 8921,
        "contract": "contracts/V2/PopCoinFactoryV2.sol:PopCoinFactoryV2",
        "label": "CURVE_CONSTANT",
        "offset": 0,
        "slot": "4",
        "type": "t_uint256"
      },
      {
        "astId": 8924,
        "contract": "contracts/V2/PopCoinFactoryV2.sol:PopCoinFactoryV2",
        "label": "deployLiquidityFee",
        "offset": 0,
        "slot": "5",
        "type": "t_uint256"
      },
      {
        "astId": 8927,
        "contract": "contracts/V2/PopCoinFactoryV2.sol:PopCoinFactoryV2",
        "label": "tokenCreateFee",
        "offset": 0,
        "slot": "6",
        "type": "t_uint256"
      },
      {
        "astId": 8930,
        "contract": "contracts/V2/PopCoinFactoryV2.sol:PopCoinFactoryV2",
        "label": "transactionFeePercent",
        "offset": 0,
        "slot": "7",
        "type": "t_uint256"
      },
      {
        "astId": 8932,
        "contract": "contracts/V2/PopCoinFactoryV2.sol:PopCoinFactoryV2",
        "label": "adminPaymentAddress",
        "offset": 0,
        "slot": "8",
        "type": "t_address_payable"
      },
      {
        "astId": 8936,
        "contract": "contracts/V2/PopCoinFactoryV2.sol:PopCoinFactoryV2",
        "label": "routersSupported",
        "offset": 0,
        "slot": "9",
        "type": "t_mapping(t_address,t_bool)"
      },
      {
        "astId": 8938,
        "contract": "contracts/V2/PopCoinFactoryV2.sol:PopCoinFactoryV2",
        "label": "paused",
        "offset": 0,
        "slot": "10",
        "type": "t_bool"
      },
      {
        "astId": 8943,
        "contract": "contracts/V2/PopCoinFactoryV2.sol:PopCoinFactoryV2",
        "label": "tokenPool",
        "offset": 0,
        "slot": "11",
        "type": "t_mapping(t_address,t_struct(Pool)8893_storage)"
      },
      {
        "astId": 8948,
        "contract": "contracts/V2/PopCoinFactoryV2.sol:PopCoinFactoryV2",
        "label": "ownerTokens",
        "offset": 0,
        "slot": "12",
        "type": "t_mapping(t_address,t_array(t_address)dyn_storage)"
      },
      {
        "astId": 8952,
        "contract": "contracts/V2/PopCoinFactoryV2.sol:PopCoinFactoryV2",
        "label": "tokenCreators",
        "offset": 0,
        "slot": "13",
        "type": "t_mapping(t_address,t_address)"
      },
      {
        "astId": 9027,
        "contract": "contracts/V2/PopCoinFactoryV2.sol:PopCoinFactoryV2",
        "label": "maxGasPrice",
        "offset": 0,
        "slot": "14",
        "type": "t_uint256"
      }
    ],
    "types": {
      "t_address": {
        "encoding": "inplace",
        "label": "address",
        "numberOfBytes": "20"
      },
      "t_address_payable": {
        "encoding": "inplace",
        "label": "address payable",
        "numberOfBytes": "20"
      },
      "t_array(t_address)dyn_storage": {
        "base": "t_address",
        "encoding": "dynamic_array",
        "label": "address[]",
        "numberOfBytes": "32"
      },
      "t_bool": {
        "encoding": "inplace",
        "label": "bool",
        "numberOfBytes": "1"
      },
      "t_contract(FunTokenV2)8800": {
        "encoding": "inplace",
        "label": "contract FunTokenV2",
        "numberOfBytes": "20"
      },
      "t_mapping(t_address,t_address)": {
        "encoding": "mapping",
        "key": "t_address",
        "label": "mapping(address => address)",
        "numberOfBytes": "32",
        "value": "t_address"
      },
      "t_mapping(t_address,t_array(t_address)dyn_storage)": {
        "encoding": "mapping",
        "key": "t_address",
        "label": "mapping(address => address[])",
        "numberOfBytes": "32",
        "value": "t_array(t_address)dyn_storage"
      },
      "t_mapping(t_address,t_bool)": {
        "encoding": "mapping",
        "key": "t_address",
        "label": "mapping(address => bool)",
        "numberOfBytes": "32",
        "value": "t_bool"
      },
      "t_mapping(t_address,t_struct(Pool)8893_storage)": {
        "encoding": "mapping",
        "key": "t_address",
        "label": "mapping(address => struct Pool)",
        "numberOfBytes": "32",
        "value": "t_struct(Pool)8893_storage"
      },
      "t_struct(Pool)8893_storage": {
        "encoding": "inplace",
        "label": "struct Pool",
        "members": [
          {
            "astId": 8870,
            "contract": "contracts/V2/PopCoinFactoryV2.sol:PopCoinFactoryV2",
            "label": "token",
            "offset": 0,
            "slot": "0",
            "type": "t_contract(FunTokenV2)8800"
          },
          {
            "astId": 8872,
            "contract": "contracts/V2/PopCoinFactoryV2.sol:PopCoinFactoryV2",
            "label": "tokenReserve",
            "offset": 0,
            "slot": "1",
            "type": "t_uint256"
          },
          {
            "astId": 8874,
            "contract": "contracts/V2/PopCoinFactoryV2.sol:PopCoinFactoryV2",
            "label": "virtualTokenReserve",
            "offset": 0,
            "slot": "2",
            "type": "t_uint256"
          },
          {
            "astId": 8876,
            "contract": "contracts/V2/PopCoinFactoryV2.sol:PopCoinFactoryV2",
            "label": "ethReserve",
            "offset": 0,
            "slot": "3",
            "type": "t_uint256"
          },
          {
            "astId": 8878,
            "contract": "contracts/V2/PopCoinFactoryV2.sol:PopCoinFactoryV2",
            "label": "virtualEthReserve",
            "offset": 0,
            "slot": "4",
            "type": "t_uint256"
          },
          {
            "astId": 8880,
            "contract": "contracts/V2/PopCoinFactoryV2.sol:PopCoinFactoryV2",
            "label": "lastPrice",
            "offset": 0,
            "slot": "5",
            "type": "t_uint256"
          },
          {
            "astId": 8882,
            "contract": "contracts/V2/PopCoinFactoryV2.sol:PopCoinFactoryV2",
            "label": "lastMcapInEth",
            "offset": 0,
            "slot": "6",
            "type": "t_uint256"
          },
          {
            "astId": 8884,
            "contract": "contracts/V2/PopCoinFactoryV2.sol:PopCoinFactoryV2",
            "label": "lastTimestamp",
            "offset": 0,
            "slot": "7",
            "type": "t_uint256"
          },
          {
            "astId": 8886,
            "contract": "contracts/V2/PopCoinFactoryV2.sol:PopCoinFactoryV2",
            "label": "lastBlock",
            "offset": 0,
            "slot": "8",
            "type": "t_uint256"
          },
          {
            "astId": 8888,
            "contract": "contracts/V2/PopCoinFactoryV2.sol:PopCoinFactoryV2",
            "label": "creator",
            "offset": 0,
            "slot": "9",
            "type": "t_address"
          },
          {
            "astId": 8890,
            "contract": "contracts/V2/PopCoinFactoryV2.sol:PopCoinFactoryV2",
            "label": "routerAddress",
            "offset": 0,
            "slot": "10",
            "type": "t_address"
          },
          {
            "astId": 8892,
            "contract": "contracts/V2/PopCoinFactoryV2.sol:PopCoinFactoryV2",
            "label": "migrated",
            "offset": 20,
            "slot": "10",
            "type": "t_bool"
          }
        ],
        "numberOfBytes": "352"
      },
      "t_uint256": {
        "encoding": "inplace",
        "label": "uint256",
        "numberOfBytes": "32"
      }
    }
  }
}