{
  "address": "0x245835214BBBB7caD494eDE7903394c09F3b2f90",
  "abi": [
    {
      "inputs": [
        {
          "internalType": "address",
          "name": "_supraValueFeedAddress",
          "type": "address"
        },
        {
          "internalType": "uint256[]",
          "name": "ratePairIndexes",
          "type": "uint256[]"
        }
      ],
      "stateMutability": "nonpayable",
      "type": "constructor"
    },
    {
      "inputs": [],
      "name": "InvalidPair",
      "type": "error"
    },
    {
      "inputs": [
        {
          "internalType": "address",
          "name": "owner",
          "type": "address"
        }
      ],
      "name": "OwnableInvalidOwner",
      "type": "error"
    },
    {
      "inputs": [
        {
          "internalType": "address",
          "name": "account",
          "type": "address"
        }
      ],
      "name": "OwnableUnauthorizedAccount",
      "type": "error"
    },
    {
      "anonymous": false,
      "inputs": [
        {
          "indexed": true,
          "internalType": "address",
          "name": "caller",
          "type": "address"
        },
        {
          "indexed": false,
          "internalType": "uint256[]",
          "name": "ratePairs",
          "type": "uint256[]"
        }
      ],
      "name": "BlackListPair",
      "type": "event"
    },
    {
      "anonymous": false,
      "inputs": [
        {
          "indexed": true,
          "internalType": "address",
          "name": "previousOwner",
          "type": "address"
        },
        {
          "indexed": true,
          "internalType": "address",
          "name": "newOwner",
          "type": "address"
        }
      ],
      "name": "OwnershipTransferred",
      "type": "event"
    },
    {
      "anonymous": false,
      "inputs": [
        {
          "indexed": true,
          "internalType": "address",
          "name": "caller",
          "type": "address"
        },
        {
          "indexed": false,
          "internalType": "uint256[]",
          "name": "ratePairs",
          "type": "uint256[]"
        }
      ],
      "name": "WhitelistPair",
      "type": "event"
    },
    {
      "inputs": [
        {
          "internalType": "uint256[]",
          "name": "pairs",
          "type": "uint256[]"
        }
      ],
      "name": "blacklistSupraPair",
      "outputs": [],
      "stateMutability": "nonpayable",
      "type": "function"
    },
    {
      "inputs": [
        {
          "internalType": "uint256",
          "name": "_priceIndex",
          "type": "uint256"
        }
      ],
      "name": "getPrice",
      "outputs": [
        {
          "components": [
            {
              "internalType": "uint256",
              "name": "round",
              "type": "uint256"
            },
            {
              "internalType": "uint256",
              "name": "decimals",
              "type": "uint256"
            },
            {
              "internalType": "uint256",
              "name": "time",
              "type": "uint256"
            },
            {
              "internalType": "uint256",
              "name": "price",
              "type": "uint256"
            }
          ],
          "internalType": "struct ISupraSValueFeed.priceFeed",
          "name": "",
          "type": "tuple"
        }
      ],
      "stateMutability": "view",
      "type": "function"
    },
    {
      "inputs": [
        {
          "internalType": "uint256[]",
          "name": "_priceIndexes",
          "type": "uint256[]"
        }
      ],
      "name": "getPrices",
      "outputs": [
        {
          "components": [
            {
              "internalType": "uint256",
              "name": "round",
              "type": "uint256"
            },
            {
              "internalType": "uint256",
              "name": "decimals",
              "type": "uint256"
            },
            {
              "internalType": "uint256",
              "name": "time",
              "type": "uint256"
            },
            {
              "internalType": "uint256",
              "name": "price",
              "type": "uint256"
            }
          ],
          "internalType": "struct ISupraSValueFeed.priceFeed[]",
          "name": "",
          "type": "tuple[]"
        }
      ],
      "stateMutability": "view",
      "type": "function"
    },
    {
      "inputs": [],
      "name": "owner",
      "outputs": [
        {
          "internalType": "address",
          "name": "",
          "type": "address"
        }
      ],
      "stateMutability": "view",
      "type": "function"
    },
    {
      "inputs": [],
      "name": "renounceOwnership",
      "outputs": [],
      "stateMutability": "nonpayable",
      "type": "function"
    },
    {
      "inputs": [],
      "name": "supraValueFeedAddress",
      "outputs": [
        {
          "internalType": "address",
          "name": "",
          "type": "address"
        }
      ],
      "stateMutability": "view",
      "type": "function"
    },
    {
      "inputs": [
        {
          "internalType": "address",
          "name": "newOwner",
          "type": "address"
        }
      ],
      "name": "transferOwnership",
      "outputs": [],
      "stateMutability": "nonpayable",
      "type": "function"
    },
    {
      "inputs": [
        {
          "internalType": "contract ISupraSValueFeed",
          "name": "_newSValueFeed",
          "type": "address"
        }
      ],
      "name": "updateSupraSvalueFeed",
      "outputs": [],
      "stateMutability": "nonpayable",
      "type": "function"
    },
    {
      "inputs": [
        {
          "internalType": "uint256[]",
          "name": "pairs",
          "type": "uint256[]"
        }
      ],
      "name": "whitelistSupraPair",
      "outputs": [],
      "stateMutability": "nonpayable",
      "type": "function"
    }
  ],
  "transactionHash": "0x760442e826bb489bb33957729c37c1866a84f8ac8e97672a7752ab67244daa64",
  "args": [
    "0x5df499C9DB456154F81121282c0cB16b59e74C4b",
    [
      260,
      142,
      56,
      356
    ]
  ],
  "numDeployments": 3,
  "solcInputHash": "f0eb6b90117522908a4f252278f0b982",
  "bytecode": "0x608060405234610231576000610a0d908138038061001c81610236565b93843982019060408383031261022e5782516001600160a01b0381169390849003610226576020810151906001600160401b03821161022a57019282601f85011215610226578351926001600160401b038411610212578360051b946020610085818801610236565b8096815201906020829782010192831161020e57602001905b8282106101fe5750505033156101ea578154336001600160a01b0319821681178455906001600160a01b03167f8be0079c531659141344cd1fd0a4f28419497f9722a3daafe3b4186f6b6457e08480a3600280546001600160a01b03191691909117905550805160005b8181106101a1575050604051906020820190602083525180915260408201929060005b81811061018b57337fe901a0efe00b451f938febe0a54a280bd2032f4129232a42102b31d5cdbcb19685870386a2600254600180546001600160a01b0319166001600160a01b039290921691909117905560405161079b90816102728239f35b825185526020948501949092019160010161012b565b82518110156101d45780602060019260051b85010151600052600360205260406000208260ff1982541617905501610108565b634e487b7160e01b600052603260045260246000fd5b631e4fbdf760e01b82526004829052602482fd5b815181526020918201910161009e565b8480fd5b634e487b7160e01b83526041600452602483fd5b5080fd5b8280fd5b80fd5b600080fd5b6040519190601f01601f191682016001600160401b0381118382101761025b57604052565b634e487b7160e01b600052604160045260246000fdfe6080604052600436101561001257600080fd5b60003560e01c806309cb3a4e1461041557806334900ec2146103975780635cebf05014610316578063715018a6146102bd5780638da5cb5b14610294578063bb66ae391461026b578063e3f87ee514610220578063e7572230146101115763f2fde38b1461007f57600080fd5b3461010c57602036600319011261010c576004356001600160a01b0381169081900361010c576100ad61073c565b80156100f657600080546001600160a01b03198116831782556001600160a01b0316907f8be0079c531659141344cd1fd0a4f28419497f9722a3daafe3b4186f6b6457e09080a3005b631e4fbdf760e01b600052600060045260246000fd5b600080fd5b3461010c57602036600319011261010c5760043560006060604051610135816105b1565b828152826020820152826040820152015280600052600360205260ff604060002054161561020f576001546040516344dca75160e11b81526004810192909252608090829060249082906001600160a01b03165afa8015610203576000906101c8575b6080906101c66040518092606080918051845260208101516020850152604081015160408501520151910152565bf35b5060803d6080116101fc575b6101de81836105e3565b81019060808183031261010c576080916101f7916106c6565b610198565b503d6101d4565b6040513d6000823e3d90fd5b630793df6360e21b60005260046000fd5b3461010c57602036600319011261010c576004356001600160a01b0381169081900361010c5761024e61073c565b6bffffffffffffffffffffffff60a01b6001541617600155600080f35b3461010c57600036600319011261010c576002546040516001600160a01b039091168152602090f35b3461010c57600036600319011261010c576000546040516001600160a01b039091168152602090f35b3461010c57600036600319011261010c576102d661073c565b600080546001600160a01b0319811682556001600160a01b03167f8be0079c531659141344cd1fd0a4f28419497f9722a3daafe3b4186f6b6457e08280a3005b3461010c576103243661061d565b61032c61073c565b805160005b81811061036e57827fae389949b38a0c4900f5b5a16f575ccb1515fc5d8872a8416cea77d678dd1bf160405180610369339482610702565b0390a2005b8061037b6001928561069c565b516000526003602052604060002060ff19815416905501610331565b3461010c576103a53661061d565b6103ad61073c565b805160005b8181106103ea57827fe901a0efe00b451f938febe0a54a280bd2032f4129232a42102b31d5cdbcb19660405180610369339482610702565b806103f76001928561069c565b51600052600360205260406000208260ff19825416179055016103b2565b3461010c576104233661061d565b60005b815181101561045857610439818361069c565b51600052600360205260ff604060002054161561020f57600101610426565b60015460405163f48bf17760e01b81529060009082906001600160a01b031681806104868860048301610702565b03915afa90811561020357600091610508575b5060405180916020820160208352815180915260206040840192019060005b8181106104c6575050500390f35b9193509160206080826104fa6001948851606080918051845260208101516020850152604081015160408501520151910152565b0194019101918493926104b8565b903d8082843e61051881846105e3565b8201916020818403126105a95780519067ffffffffffffffff82116105ad57019180601f840112156105a95782519061055082610605565b9361055e60405195866105e3565b82855260208086019360071b820101938285116105a65750602001915b83831061058c575050505081610499565b602060809161059b84866106c6565b81520192019161057b565b80fd5b5080fd5b8280fd5b6080810190811067ffffffffffffffff8211176105cd57604052565b634e487b7160e01b600052604160045260246000fd5b90601f8019910116810190811067ffffffffffffffff8211176105cd57604052565b67ffffffffffffffff81116105cd5760051b60200190565b602060031982011261010c576004359067ffffffffffffffff821161010c578060238301121561010c57816004013561065581610605565b9261066360405194856105e3565b8184526024602085019260051b82010192831161010c57602401905b82821061068c5750505090565b813581526020918201910161067f565b80518210156106b05760209160051b010190565b634e487b7160e01b600052603260045260246000fd5b919082608091031261010c576040516106de816105b1565b60608082948051845260208101516020850152604081015160408501520151910152565b602060408183019282815284518094520192019060005b8181106107265750505090565b8251845260209384019390920191600101610719565b6000546001600160a01b0316330361075057565b63118cdaa760e01b6000523360045260246000fdfea264697066735822122048e1f145825842fa93c108ca3458f50985d386afe47840aaae98548c58bfd85364736f6c634300081a0033",
  "devdoc": {
    "errors": {
      "OwnableInvalidOwner(address)": [
        {
          "details": "The owner is not a valid owner account. (eg. `address(0)`)"
        }
      ],
      "OwnableUnauthorizedAccount(address)": [
        {
          "details": "The caller account is not authorized to perform an operation."
        }
      ]
    },
    "kind": "dev",
    "methods": {
      "owner()": {
        "details": "Returns the address of the current owner."
      },
      "renounceOwnership()": {
        "details": "Leaves the contract without owner. It will not be possible to call `onlyOwner` functions. Can only be called by the current owner. NOTE: Renouncing ownership will leave the contract without an owner, thereby disabling any functionality that is only available to the owner."
      },
      "transferOwnership(address)": {
        "details": "Transfers ownership of the contract to a new account (`newOwner`). Can only be called by the current owner."
      }
    },
    "version": 1
  },
  "userdoc": {
    "kind": "user",
    "methods": {},
    "version": 1
  },
  "storageLayout": {
    "storage": [
      {
        "astId": 8,
        "contract": "contracts/Oracles/SupraPUSHOracle.sol:SupraPUSHOracle",
        "label": "_owner",
        "offset": 0,
        "slot": "0",
        "type": "t_address"
      },
      {
        "astId": 244,
        "contract": "contracts/Oracles/SupraPUSHOracle.sol:SupraPUSHOracle",
        "label": "sValueFeed",
        "offset": 0,
        "slot": "1",
        "type": "t_contract(ISupraSValueFeed)233"
      },
      {
        "astId": 247,
        "contract": "contracts/Oracles/SupraPUSHOracle.sol:SupraPUSHOracle",
        "label": "supraValueFeedAddress",
        "offset": 0,
        "slot": "2",
        "type": "t_address"
      },
      {
        "astId": 251,
        "contract": "contracts/Oracles/SupraPUSHOracle.sol:SupraPUSHOracle",
        "label": "isValidPair",
        "offset": 0,
        "slot": "3",
        "type": "t_mapping(t_uint256,t_bool)"
      }
    ],
    "types": {
      "t_address": {
        "encoding": "inplace",
        "label": "address",
        "numberOfBytes": "20"
      },
      "t_bool": {
        "encoding": "inplace",
        "label": "bool",
        "numberOfBytes": "1"
      },
      "t_contract(ISupraSValueFeed)233": {
        "encoding": "inplace",
        "label": "contract ISupraSValueFeed",
        "numberOfBytes": "20"
      },
      "t_mapping(t_uint256,t_bool)": {
        "encoding": "mapping",
        "key": "t_uint256",
        "label": "mapping(uint256 => bool)",
        "numberOfBytes": "32",
        "value": "t_bool"
      },
      "t_uint256": {
        "encoding": "inplace",
        "label": "uint256",
        "numberOfBytes": "32"
      }
    }
  }
}